:020000040800F2
:10000000880A0020CD010008F9040008B5040008A2
:10001000F504000891030008570D000800000000D7
:10002000000000000000000000000000F1060008D1
:10003000950300080000000081050008050800087D
:10004000E7010008E7010008E7010008E7010008F0
:10005000E7010008E7010008E7010008E7010008E0
:10006000E7010008E7010008E7010008E7010008D0
:10007000E7010008E7010008E7010008E7010008C0
:10008000E7010008E7010008E7010008E7010008B0
:10009000E7010008E7010008E7010008E7010008A0
:1000A000E7010008E7010008E7010008E701000890
:1000B00069080008E7010008E7010008E7010008F7
:1000C000E7010008E7010008E7010008E701000870
:1000D000E7010008450A0008CD0A0008E70100080A
:1000E000E7010008E7010008E7010008E701000850
:1000F000E7010008E7010008E7010008E701000840
:10010000E7010008E7010008E7010008E70100082F
:10011000E7010008E7010008E7010008E70100081F
:10012000E7010008E7010008E7010008E70100080F
:1001300000F002F800F03AF80AA090E8000C8244BF
:100140008344AAF10107DA4501D100F02FF8AFF29C
:10015000090EBAE80F0013F0010F18BFFB1A43F0A5
:10016000010318473422000054220000103A24BF33
:1001700078C878C1FAD8520724BF30C830C144BF0C
:1001800004680C607047000000230024002500264E
:10019000103A28BF78C1FBD8520728BF30C148BFEA
:1001A0000B6070471FB51FBD10B510BD00F046F8BD
:1001B0001146FFF7F7FF00F0AFFF00F064F803B45B
:1001C000FFF7F2FF03BC00F039FE0000094880474A
:1001D00009480047FEE7FEE7FEE7FEE7FEE7FEE729
:1001E000FEE7FEE7FEE7FEE704480549054A064B41
:1001F0007047000009080008310100088804002049
:10020000880A002088060020880600207047704772
:1002100070477047704710B500F008F8006810BDCF
:1002200010B5044600F002F8046010BD00487047A5
:100230002404002000487047240400207546FFF77E
:10024000F9FFAE4605006946534620F00700854693
:1002500018B020B5FFF7C8FFBDE820404FF00006FA
:100260004FF000074FF000084FF0000B21F007019E
:10027000AC46ACE8C009ACE8C009ACE8C009ACE8E1
:10028000C0098D4670470446AFF300802046FFF753
:1002900096FF21B1826842F00102826003E0826829
:1002A00022F001028260704710B504461248844271
:1002B00008D10121401500F0A1F90021601500F0DE
:1002C0009DF917E00D48844208D10121001500F086
:1002D00095F90021201500F091F90BE008488442BF
:1002E00008D10121C80300F089F900214FF4004032
:1002F00000F084F910BD00000024014000280140F6
:10030000003C0140014600208A6802F004020AB164
:10031000012000E000207047014600208A6802F0BA
:1003200008020AB1012000E00020704730B5024603
:100330000020002350680F4C20400D790C6844EADF
:1003400005242043506090680B4C2040D1E90254B2
:100350002C434D7944EA450420439060D06A20F450
:1003600070000C7C641EE4B2234340EA0350D06268
:1003700030BD0000FFFEF0FFFDF7F1FF816841F0A6
:10038000080181607047816841F004018160704715
:1003900000BFFEE770472DE9F04102460025002628
:1003A000002000230024002791F803C00CF00F0563
:1003B00091F803C00CF0100CBCF1000F03D091F8C1
:1003C00002C04CEA050591F800C0BCF1000F31D025
:1003D000146800202BE04FF0010C0CFA00F3B1F888
:1003E00000C00CEA03069E4220D183004FF00F0CA0
:1003F0000CFA03F7BC4305FA03FC4CEA040491F839
:1004000003C0BCF1280F06D14FF0010C0CFA00FC20
:10041000C2F814C00AE091F803C0BCF1480F05D13E
:100420004FF0010C0CFA00FCC2F810C0401C082868
:10043000D1D31460B1F800C0BCF1FF0F34DD5468B3
:1004400000202EE000F1080C4FF0010808FA0CF330
:10045000B1F800C00CEA03069E4221D183004FF0A0
:100460000F0C0CFA03F7BC4305FA03FC4CEA040436
:1004700091F803C0BCF1280F05D100F1080C08FA6F
:100480000CF8C2F8148091F803C0BCF1480F07D1F2
:1004900000F1080C4FF0010808FA0CF8C2F81080BF
:1004A000401C0828CED35460BDE8F08141617047FC
:1004B0000161704700BFFEE708B50121402000F050
:1004C0008DF86020ADF8000010208DF803000320A7
:1004D0008DF8020069460648FFF75DFF20210448B9
:1004E000FFF7E6FF40210248FFF7E2FF08BD0000EA
:1004F0000018014000BFFEE77047000070B5002102
:1005000000230F22C47804B3154C246804F4E0647B
:10051000C4F5E064210AC1F10403CA40447804FA36
:1005200003F184781440214309010E4C0678A1554B
:10053000047804F01F050124AC4005786D11AD006E
:1005400005F1E025C5F8004109E0047804F01F0535
:100550000124AC40044D0678761145F8264070BD64
:100560000CED00E000E400E080E100E0024901431E
:10057000024A1160704700000000FA050CED00E02F
:100580007047000001460020034A506820F44040B4
:1005900008435060704700000010024029B1064A2D
:1005A000D2690243044BDA6104E0034AD269824310
:1005B000014BDA61704700000010024029B1064A81
:1005C00012690243044B1A6104E0034A1269824330
:1005D000014B1A61704700000010024029B1064A21
:1005E00092690243044B9A6104E0034A9269824390
:1005F000014B9A61704700000010024029B1064A81
:10060000D2680243044BDA6004E0034AD2688243B2
:10061000014BDA60704700000010024030B5002145
:100620000022002400232D4D6D6805F00C0121B13E
:10063000042905D0082923D105E0294D056022E0D1
:10064000274D05601FE0254D6D6805F47012234DA0
:100650006D6805F48034022505EB92421CB9214DEA
:10066000554305600BE01D4D6D6805F400351DB167
:100670001C4D5543056002E0194D5543056002E0ED
:10068000174D056000BF00BF144D6D6805F0F00107
:100690000909154D6B5C0568DD4045600F4D6D68BF
:1006A00005F4E061090A104D6B5C4568DD4085602A
:1006B0000A4D6D6805F46051C90A0B4D6B5C4568C5
:1006C000DD40C560054D6D6805F44041890B074D5F
:1006D0006B5CC568B5FBF3F5056130BD00100240E9
:1006E00000127A0000093D001E0000202E000020AC
:1006F000704710B500F002F810BD00000CB50020E6
:10070000019000903348006840F48030314908601F
:1007100000BF3048006800F4003000900198401C91
:100720000190009818B90198B0F5A06FF1D129484F
:10073000006800F4003010B10120009001E00020BA
:1007400000900098012843D12348006840F0100031
:10075000214908600846006820F003000860084648
:10076000006840F0020008601A4840681949486073
:100770000846406848600846406840F48060486029
:100780000846406820F47C1048600846406840F401
:10079000E81048600846006840F08070086000BFBC
:1007A0000C48006800F000700028F9D00948406843
:1007B00020F00300074948600846406840F0020006
:1007C000486000BF0348406800F00C000828F9D1D9
:1007D0000CBD00000010024000200240042808D197
:1007E0004FF0E021096941F004014FF0E02211616E
:1007F00007E04FF0E021096921F004014FF0E02209
:10080000116170477047000010B51348006840F050
:1008100001001149086008464068104908400E4927
:100820004860084600680E4908400B4908600846C1
:10083000006820F4802008600846406820F4FE002C
:1008400048604FF41F008860FFF753FF4FF00060CF
:100850000449086010BD0000001002400000FFF8CD
:10086000FFFFF6FE08ED00E010B54FF08040008A73
:1008700000F00400E8B112480068401C104908600C
:1008800008460068B0F5C77F06D80E490C4A1268C2
:1008900031F8120000F0C2FC09480068B0F5FA5FB8
:1008A00007D14FF08040008820F001004FF08041D8
:1008B00008804FF6FB704FF08041088210BD0000A9
:1008C00034000020380000200146088D70471AB11E
:1008D00083890B43838102E083898B438381704743
:1008E00070B5002400220023058C4FF6EF763540CA
:1008F0000584028C8388048B48F6FF752C404FF6E4
:10090000FF452C400D884FF6FF7606EA05252C435F
:100910004FF6DF752A400D8906EA05152A434D88F2
:1009200006EA05152A43154DA84202D0144DA842E7
:100930001DD14FF67F752A404D894FF6FF7606EAA6
:1009400005152A434FF6BF752A408D8806EA05151E
:100950002A434FF6FF352B404FF2FF752B408D8910
:1009600006EA85052B43CD8906EA85052B4383805E
:100970000483CD880587028470BD0000002C0140EF
:10098000003401400A460021018B4FF2FF731940E9
:100990004FF6FF7303EA02231943018370470000F7
:1009A000002202881D4B98420ED01D4B98420BD05E
:1009B000B0F1804F08D01B4B984205D01A4B98429B
:1009C00002D01A4B984204D14FF68F731A404B88CD
:1009D0001A43174B984207D0164B984204D04FF653
:1009E000FF431A40CB881A4302808B8883850B888B
:1009F00003850A4B98420BD0094B984208D00E4B06
:100A0000984205D00D4B984202D00D4B984201D12F
:100A10000B7A03860123838270470000002C01407B
:100A2000003401400004004000080040000C004079
:100A3000001000400014004000400140004401400C
:100A40000048014010B540F225511D4800F0C2F8A1
:100A500010B31B4800F07AF9C4B21A48008800F4B9
:100A60000040C8B91748008800F4804060B10A2CE3
:100A700003D000201349088020E01248008840F489
:100A800000401049088019E00D2C06D10D4800885F
:100A900040F480400B49088010E00A480088C0F309
:100AA0000D0009490C5407480088401C054908807E
:100AB00008460088C72801DD0020088010BD00001E
:100AC000003801401C0000205A03002010B52021EE
:100AD0000948FFF7EBFC40F22551084800F07AF88E
:100AE00040B140F22551054800F00AF84021024883
:100AF000FFF7DCFC10BD000000180140004400407E
:100B000010B50022002340F66A14A14200D100BFB4
:100B10000A1201249440A3B2DC43048010BD21B129
:100B2000828942F40052828104E082894DF6FF738B
:100B30001A4082817047000010B504462048844264
:100B400009D101218803FFF759FD00214FF48040AE
:100B5000FFF754FD32E01B48844209D101214804CB
:100B6000FFF72CFD00214FF40030FFF727FD25E0B3
:100B70001548844209D101218804FFF71FFD002197
:100B80004FF48020FFF71AFD18E01048844209D185
:100B90000121C804FFF712FD00214FF40020FFF7E8
:100BA0000DFD0BE00A48844208D101210805FFF73A
:100BB00005FD00214FF48010FFF700FD10BD00007F
:100BC000003801400044004000480040004C004014
:100BD0000050004070B5024600240023002500208C
:100BE00040F66A16B14200D100BFC1F3421501F0D0
:100BF0001F03012606FA03F3012D02D19689334023
:100C000006E0022D02D1168A334001E0968A334075
:100C10000C12012606FA04F41688344013B10CB104
:100C2000012000E0002070BDF0B50346002400263E
:100C30000025002040F66A17B94200D100BF1846CF
:100C4000C1F3421401F01F06012707FA06F5012C33
:100C500001D10C3004E0022C01D1103000E014303E
:100C60001AB107682F43076002E00768AF430760C7
:100C7000F0BD00002DE9F04786B005460E46002481
:100C8000A24600BFA1460027B08900B100BF2F4691
:100C90002C8A4CF6FF700440F08804432C82AC8907
:100CA0004EF6F3100440B088318908437189084337
:100CB0000443AC81AC8A4FF6FF400440B089044342
:100CC000AC8201A8FFF7AAFC1F48874202D1DDF8D9
:100CD00010A001E0DDF80CA0A88900F4004040B1AC
:100CE0000AEBCA0000EB0A1031684900B0FBF1F8CA
:100CF00007E00AEBCA0000EB0A1031688900B0FB7C
:100D0000F1F86420B8FBF0F004012009642101FB34
:100D10001089A88900F4004040B1322000EBC900DE
:100D2000B0FBF1F000F00700044308E0322000EBD4
:100D300009106421B0FBF1F000F00F0004432C8196
:100D400006B0BDE8F0870000003801400146888801
:100D5000C0F30800704700BFFEE7490050EAC12019
:100D600018BF04204A0D18BF40F0010040F2FF7286
:100D7000B2EB515F08BF40F00200012808BF052018
:100D800070472DE9F0414F1E00EBC7010446D1E941
:100D9000000115461E4637F006020DD02A4633469E
:100DA00000F012FE7F1E04EBC703D3E9002300F01E
:100DB00075FB37F00602F1D1022F25D0042F13D096
:100DC000062F18BFBDE8F0812A46334600F0FCFD2F
:100DD000D4E90A2300F062FB2A46334600F0F4FD12
:100DE000D4E9082300F05AFB2A46334600F0ECFD14
:100DF000D4E9062300F052FB2A46334600F0E4FD16
:100E0000D4E9042300F04AFB2A46334600F0DCFD17
:100E1000D4E9022300F042FB2A46334600F0D4FD19
:100E2000D4E90023BDE8F04100F038BB024A0020BD
:100E3000110701F03CBA000001FDFFFF014600BFB1
:100E40007047000010B56FF00400FFF7C7FC0A48B8
:100E500000680A49B0FBF1F00949087008460078BB
:100E600000EB4001C1EBC0104FF6FF7101EAC0007A
:100E70000449088010BD00000000002000127A0024
:100E800014000020160000202DE9F04D8C4BCE0FF1
:100E900021F0004784B005460C469F4236D389486E
:100EA000874212D3C7F31300284306D004B0284664
:100EB000BDE8F04D012201F0FAB9002E1ABF002062
:100EC0000146284604B0BDE8F08D7F4A284600F070
:100ED00079FE0CD20220FFF7A3F904B040F20132F0
:100EE000BDE8F04D00204FF0E04101F0E0B9774A55
:100EF000774B2846214600F02BFD07D20220FFF752
:100F00008FF904B0BDE8F04DFFF790BF7148B842CB
:100F100048D27148874215D27048784400EBC60029
:100F20002146D0E90023284600F08EFECDE90001DD
:100F30006B48784400EBC600D0E900ABC6F1010075
:100F4000861B26E0674A684B2846214600F03CFD98
:100F5000664A7A4402EBC603D3E9002300F09EFA06
:100F600000F0B0FC064600F0DCFC07468846604A0C
:100F7000604B00F029FD2A46234600F059FECDE9DA
:100F800000015D4A5D4B3846414600F01DFD82463A
:100F90008B46DDE9000152465B4600F055FE0546F2
:100FA0000C4618E05648874214D2564A564B2846FB
:100FB000214600F073FA554E0022334600F002FE3F
:100FC00008D204B0334628462146BDE8F04D002241
:100FD00000F064BA00262A4623461046194600F05F
:100FE000F3FC804602464A480F460B4605217844EA
:100FF000FFF7C7FE42463B4600F0E6FC2A46234682
:1010000000F016FE07468846E6B302460B4600206F
:101010004FF0804100F018FECDE902013A46434608
:101020002846214600F0D0FCDDE9022300F0F2FA68
:1010300052465B4600F0FCFDDDE9002300F004FEB3
:101040000022324B00F0F4FD40F2FD329219A2BFB3
:1010500001EB065104B0BDE8F08D4FF07A5202EB7F
:10106000065211442B4A01F022F905460C46FFF7BF
:1010700074FE042808BFFFF7D9FE284604B02146B5
:10108000BDE8F08DFFE700224FF0804300F0DCFD6B
:1010900082460E463A4643462846214600F094FCD6
:1010A0005246334600F0B6FA2A46234600F0CCFDFD
:1010B00004B00022BDE8F04D144B00F0B9BD0000B3
:1010C000422E86400000F07FEF39FAFE51302DD5D8
:1010D000104987C0422ED63FB2A2F03F3214000022
:1010E0002A140000FE822B654715F73FEA13000023
:1010F0000000E0FE422EE63F763C7935EF39EA3DCE
:101100000000303E9C7500883CE4377E0000F03FD4
:101110007E13000018FCFFFF08B5FFF793FEFFF7F2
:10112000CBF94FF4A060FFF721FA4FF4165000F00E
:101130008DF8062041F64C5340F2DC524FF4C87152
:101140000090074800F020F94821642000F00AF8D8
:1011500040F2DC5000F062F800F0D0F800BFFEE78B
:101160003800002030B589B005460C4601210846FC
:10117000FFF714FA01210520FFF730FA0220ADF83D
:10118000200018208DF8230003208DF8220008A9E4
:101190002148FFF700F90020ADF81A00ADF816005D
:1011A000ADF81850ADF8144005A94FF08040FFF796
:1011B000F7FB7020ADF804000020ADF80C00012012
:1011C000ADF8060001A98007FFF78AFB1C208DF807
:1011D000000000208DF801008DF8020001208DF83C
:1011E00003006846FFF78AF9012204210807FFF788
:1011F0006EFB0821C806FFF7C5FB40F2DC5000F08B
:101200000DF84FF08040008820F001004FF0804141
:10121000088009B030BD00000008014070B50446E8
:101220004FF08040FFF750FB0546074890FBF5F074
:1012300090FBF4F084B2204604EBD0714E104FF0D6
:1012400080408485068770BD00A24A0410B588B02E
:10125000044601214804FFF7A1F901210420FFF70A
:10126000BDF92448FFF768FC0420ADF81C001820E5
:101270008DF81F0003208DF81E0007A91E48FFF7F8
:101280008AF80820ADF8180004208DF81B00032010
:101290008DF81A0006A91848FFF77DF8029400207F
:1012A000ADF814000C20ADF812000020ADF81000CD
:1012B000ADF80E00ADF80C0002A90E48FFF7DAFCFD
:1012C00026208DF8040000208DF805008DF806001A
:1012D00001208DF8070001A8FFF710F9012240F264
:1012E00025510448FFF7A0FC01210248FFF717FC35
:1012F00008B010BD004400400008014000B587B0B0
:1013000001214FF40170FFF769F90820ADF80400DE
:1013100000208DF8070001A91948FFF73CF84FF4A9
:101320000040FFF72FF91748FEF7BEFF002002909C
:101330008DF80C008DF80D004FF460200490002013
:10134000059001208DF8180002A90E48FEF7EEFF67
:1013500001210C48FEF79DFF0A48FFF70FF800BF78
:101360000848FEF7D9FF0028FAD10648FFF70BF826
:1013700000BF0448FEF7C6FF0028FAD107B000BD41
:1013800000080140002401402DE9F04F89B080465B
:101390000C46164699460025A9EB060080B2089037
:1013A00042E0274604EBD770A5EB60001299484352
:1013B00004EBD471491090FBF1F0CDE9060400F084
:1013C000D7FD83468BF00047384600F027FDCDE976
:1013D0000001FFF759FD0022164BCDE9020100F094
:1013E0005DF802460B46CDE904010020114900F0EA
:1013F00011F9CDE9060100F01FF88246304600F0F1
:10140000CFFD0790089800F0CBFD5146059000F005
:10141000DBFD0690079900F02DFD074600F08CFDDE
:1014200028F81500681C85B2A542BADB09B0BDE8F2
:10143000F08F00000000F03F21F00042A2F1605266
:10144000B2F5801F01F0004328BFD2F17F6C0BD9A9
:101450005FEA001C43EAC20242EB507018BF7047BB
:1014600028BF20F001007047B2F5801FBCBF1846AE
:1014700070474FEA410C1CF5001F02D2084600F0ED
:101480006ABE70B500F04AFB00000089FFF7F6BFA6
:101490004FF00040A0F580007047000010B591EAC1
:1014A000030F48BF83F0004300F1D683841A71EB29
:1014B000030C05D2121943EB0C03001B61EB0C016A
:1014C000DFF824E14FEA1154A4EB135C1EEA430F4A
:1014D00018BF9EEA445F73D023EA0E03DCF1200EAE
:1014E00021EA045143F4801332D322FA0CFE10EBAC
:1014F0000E0023FA0CFE41EB0E01CCF1200E03FA94
:101500000EFE10EB0E0051F10001B1F5801FCCF181
:10151000200E32D201EB045112FA0EF2BDE8104057
:1015200058BF7047401C38BF5FEA420218BF70477F
:10153000002814BF20F0010041F100014FEA4103EF
:1015400013F5001F38BF7047A1F1C04100F034BB54
:10155000012A43EB0302ACF1200CDCF11F0E32BF79
:101560004FF0000E23FA0CF310EB030041EB045193
:10157000B4EB115FD0D0A1EB045101F58011490803
:101580005FEA300001EB04510ED350F1000038BF88
:1015900012FA0EFE08D1BDE81040C9E7401C38BF62
:1015A0005FEA4202CAD1C3E7BDE810404FEA4103F7
:1015B00013F5001F38BF7047A1F1C04100F0FCBA1D
:1015C0009EEA445F08D011EA5E0FBDE8104004BFF8
:1015D00001F0004100207047BDE8104070B500F0F8
:1015E0009DFA00BF64FBBE3E0000E0FF02494FF0E1
:1015F000000000F02ABE00BF0000F87F491058BF6D
:10160000C1F140415B1058BFC3F140438B42EFF33F
:10161000008070472DE9C04130B4DFF8A0C23CEA39
:10162000111418BF3CEA131400F0EC8081EA0305A2
:101630001CEA111444EAD57418BF1CEA131500F013
:10164000C780A4EB05044FF0004545EAC12145EAF7
:10165000C32341EA505143EA525304F17F74994243
:1016600004F500344FEAC0204FEAC22208BF90427E
:1016700000F09C804FEA13650FF24016765D4FEA4A
:10168000134506FB05F7C7F1807706FB07F74FEA1E
:10169000D737A7FB03687642C8F58038A7FB06CE8C
:1016A00038BFA8F1010807FB08E64FF0000EA6FBC3
:1016B000028CE6FB03CEDCF1000CCEF1004E38BF0D
:1016C000AEF1010EA6FB0C584FF000074FF00005DD
:1016D000E6FB0E87A1FB08C6A0FB07CE16EB0E06A5
:1016E00045F10005E1FB076515F1E04E7EBFA4F56D
:1016F00080345FEA46066D4116F1800745F100052A
:101700004FEA17274FEA066647EA0567A6F1DE4665
:10171000B6F1805F4FEA15251FD9384624F0010C39
:1017200005EBC471BCF1FE6F01EB0C1102D8F0BCEB
:10173000BDE8008124425CBF01F5801E9EEAC47FA3
:1017400002D4F0BCBDE80081244238D4F0BCA1F141
:10175000C041BDE8004100F02FBA4FEAD22242EA70
:1017600043524FEAD323A7FB02864FEAD02040EA38
:10177000415007FB03661EEA0E0F4FEAD12105FB1D
:10178000026658BFA6EB0056B6EB00564FEA520E63
:101790004EEAC37E18EB0E0E56EB530EBDD518EB7A
:1017A00002085E417F1C55F10005B6E74FF4801535
:1017B0004FF000074FF000064FF00008ADE7F0BC17
:1017C0004FF0000001F1C04101F00041BDE800818F
:1017D00011EA0C1F0CEA131500D00CE013EA0C1FE1
:1017E00000F025804FF00000F0BC81EA030101F019
:1017F0000041BDE80081F0BC81EA0301BDE8004181
:1018000000F0DAB9F0BCBDE8004170B500F086F92F
:10181000097EFC3E00F007B881EA03014FF00000AA
:1018200001F00041704781EA030100F0C5B9F0BC46
:101830004FF000002249BDE800417047FFFDFBF971
:10184000F7F5F4F2F0EEEDEBE9E8E6E4E3E1E0DEF3
:10185000DDDBDAD8D7D5D4D3D1D0CFCDCCCBCAC865
:10186000C7C6C5C4C2C1C0BFBEBDBCBBBAB9B8B78C
:10187000B6B5B4B3B2B1B0AFAEADACABAAA9A8A87F
:10188000A7A6A5A4A3A3A2A1A09F9F9E9D9C9C9B4D
:101890009A999998979796959594939392919190F8
:1018A0008F8F8E8E8D8C8C8B8B8A89898888878789
:1018B0008685858484838382828181800000FF07FE
:1018C0000000F87F4FEA41034FEA5353A3F58063CA
:1018D000D3F11E03C8BFD3F1210C0CDD4FF0004241
:1018E00042EAC12242EA505232FA03FC8CEAE17C1D
:1018F000ACEBE1707047102BC4BF0020704703F5BC
:10190000787CBCF1FF3F04D06FF0004282EA2100F6
:10191000704770B500F002F94992248000207047AA
:10192000F2E710F0004248BF4042B0FA80F310FAEC
:1019300003F10AD0C3F11D0303F580634FEA415060
:1019400002EB035202EBD12170474FF000007047C9
:1019500051EA030C17D41CF5801F58BFBCF5801F3B
:1019600000F10680994218BF704708BF9042704747
:1019700007D711F5801F58BF13F5801F19D499425E
:101980007047894270471CF5801F08D5BCF5801F41
:10199000F7D58B4218BF704708BF824270474FF49B
:1019A000001C1CEB410F38BF1CEB430F01D28B42D4
:1019B000704770B500F0B2F8922449004FF0005122
:1019C0004FF08053FFF71ABEDFF848C170B51CEA2C
:1019D000111E1EBF1CEA13159EEA0C0F95EA0C0F90
:1019E00000F06F8081EA030423EA4C134EEAD47EB0
:1019F00021EA4C1141F4801143F48013AE44A1FB61
:101A0000024CA0FB0365AEF17F7E361955EB0C0549
:101A1000A1FB034C4CF10003A0FB021C16EB0C06CF
:101A2000654153F10003094218BF46F0010613F463
:101A3000007F0BD14FEA03314FEA0530340341EA0E
:101A4000155140EA16506FF003020AE04FEAC32135
:101A50004FEAC520F40241EA555140EA56506FF072
:101A6000020202EB2E4201EB025585EACE710AD04A
:101A70005FEA440C18BF24F0004450F1000041F12B
:101A8000000120EAD47040F2FE7C624500D270BDB5
:101A9000A84214BF4FF080444FF04044002E08BFCE
:101AA0000024BEF1806FA8BFA1F1C041BDE8704025
:101AB00080F282804FF0000001F1C04101F000414E
:101AC00070479EEA0C0F0CEA131518BF95EA0C0F2D
:101AD00006D04FF0000081EA030E0EF0004170BD09
:101AE00000F01CF88900013E00F007B800F009B8CA
:101AF0004FEA430C5FEA5C5C08D081EA030100F026
:101B00005BB84FEA410C5FEA5C5CF6D14FF0000035
:101B1000014970470000FF070000F87F0EF1020E38
:101B20002EF0030E5EF8046B364205D4012A43EB17
:101B3000030515F5001F12D8012841EB010C1CF517
:101B4000001F0CD80ED14FEAD17C15F5001F0CEB0D
:101B50004C0C0CF1020C08BF4CEBD37C04E04FF0B2
:101B6000080C01E04FEAD37C0CEB4C0526FA05F695
:101B700006F00706B6F1040C06D20EEB860CBDE8A3
:101B800070404CF0010C6047DFE80CF0090B0202DA
:101B90004FF000414FF00000A1F5002170BD194643
:101BA0001046012851EB010418BFD4F5001484BF7E
:101BB000002001F0004170BD0808A0F500114FEAB7
:101BC0003101704753EA010C17D41CF5801F58BF30
:101BD000BCF5801F00F106808B4218BF704708BF1C
:101BE0008242704707D713F5801F58BF11F5801F39
:101BF00019D48B4270479B4270471CF5801F08D553
:101C0000BCF5801FF7D5994218BF704708BF9042B6
:101C100070474FF4001C1CEB430F38BF1CEB410F07
:101C200001D2994270470FB40CBC03BCFFF7C1BE90
:101C300091EA030F10B581F000413FF537AC83F016
:101C4000004300F009B8000010B591EA030F48BF47
:101C500083F000433FF52AAC841A71EB030C07D2E2
:101C600012198CF0004C43EB0C03001B61EB0C01D0
:101C7000DFF8A4E14FEA1154A4EB135C1EEA430F12
:101C800018BF9EEA445F00F0B08023EA6E03524220
:101C900021EA0451C3EB6E0338BF5B1EDCF1200E5A
:101CA00025D322FA0CFE10EB0E0043FA0CFE41EB9A
:101CB0000E01CCF1200E03FA0EFE10EB0E0051F1D6
:101CC0000001CCF1200E29D412FA0EF201EB0451DE
:101CD000BDE8104058BF7047401C1CBFB2F1004F18
:101CE000704700280CBF491C20F00100704712EB20
:101CF000020E43EB030218BF4FF0010E4EEA420200
:101D0000ACF1200CDCF11E0E54D943FA0CFE10EBA2
:101D10000E0051F1FF31CCF11E0ED5D50EF1010EA2
:101D200012FA0EFE404141EB010101EB445C5FEA17
:101D30005C5C10D910EBDE7001EB045138BFBEF1D2
:101D4000004FBDE8104018BF704700280CBF491C69
:101D500020F00100704730D24FEAD42C11F5001169
:101D600024F400641BD0B1FA81F20B3AA41AA41E29
:101D7000D2F12003914030FA03F31943904001EB74
:101D8000CC71002C01EB0451BDE81040A8BF704796
:101D900001F1C0414FF0000001F000417047B0FA7E
:101DA00080F310FA03F100D110BDE41A173C480586
:101DB000C90AE4E701EB045110BD491001EB0451DD
:101DC000BDE810404FEA300002E04FF000017047DC
:101DD0004A0008BF0042F8D0B2F5001F28BF704784
:101DE00001F000414FF0000070479EEA445F07D0C9
:101DF00011EA5E0FBDE8104004BF002100207047CB
:101E0000BDE8104070B5FFF789FE00BF40DFF63E29
:101E100083F00041104670470000E0FF43004FEAA6
:101E2000D30C4FEA3C0C43401FBF40070CF16051FC
:101E300013F0FE4F70471CF0006F03D100200CF030
:101E4000004170470CF0004343EA507010B540EA7F
:101E5000CC0000F03AF900BF000000924FEA000108
:101E6000FFF7AABE4FF000414FF00000A1F500219E
:101E70007047000090EA010F48BF81F0004100F177
:101E80007681421A3CBF801A89184FEAD0524FF02F
:101E90007F4C1CEA410FA2EBD15318BF9CEA026FA2
:101EA00000F03B804FF0004C4CEA00204CEA01214E
:101EB00021FA03FC10EB0C0C1ED202F1FF325FEA98
:101EC0001C2040EBC25038BF70471CF07F0F4FEA18
:101ED000400C18BFBCF17F4F38BF7047C3F12003DF
:101EE000994008BF20F00100BCF17F4F38BF704718
:101EF000A0F1C04000F02FB94FEA3C00000A40EBCF
:101F0000C25028BF1CF0FF0F4FEA400CE6D018BFAC
:101F1000BCF17F4F38BF7047EAE79CEA026F05D0FB
:101F200010EA5C0F08BF00F00040704710B500F0E9
:101F3000CCF800BF64FBBE3E41000B0ED3F19E0205
:101F400008D950F400034FEA032323FA02F048BFF4
:101F50004042704710B500F0B8F800BF49922480A5
:101F6000002070476FF0004282EA200070470000B6
:101F700010F0004148BF4042B0FA80F310FA03F27B
:101F8000C3F19D030BD051EAC35101EB122053065C
:101F900038BF704700F1010008BF20F00100704712
:101FA000B0FA80F310FA03F2C3F19D030AD0D90509
:101FB00001EB1220530638BF704700F1010008BF43
:101FC00020F00100704700004FF47F0C1CEAD01293
:101FD0001EBF1CEAD11392EA0C0F93EA0C0F00F01B
:101FE000478090EA010F48BF42F480724FF0004CE6
:101FF0004CEA00204CEA012102EB0302A0FB011392
:10200000A2F50002002918BF43F001035B0028BFBE
:102010004FEA330342EB22425FEA132C4CEBC250EF
:102020002EBFBCEB436FB2F57C0F70474FEA036CD9
:10203000BCF1004F08BF20F00100B2F57C0F38BFA3
:1020400070470BD582F0FF0212F5803FC8BF704782
:1020500000F1C040D8BF00F00040704700F5000C10
:102060005FEA4C0C48BF7047B0F1C04000F073B855
:1020700090EA010F0CEAD11348BF42F48072624526
:1020800038BF634504D280EA010000F00040704789
:1020900010B500F01AF800BF8900013E00F007B843
:1020A00000F009B85FEA410C5FEA1C6C08D080EAD6
:1020B000010000F050B85FEA400C5FEA1C6CF6D1FA
:1020C0004FF00040A0F5800070470EF1020E2EF098
:1020D000030E5EF8044B244204D44FEA4102B2F1ED
:1020E0007F4F11D84FEA4003B3F17F4F0CD80ED188
:1020F0004FEAD07CB2F17F4F0CEB4C0C0CF1020C90
:1021000008BF4CEBD17C04E04FF0080C01E04FEA33
:10211000D17C0CEB4C0324FA03F404F00704B4F173
:10212000040C06D20EEB840CBDE810404CF0010C00
:102130006047DFE80CF0070802024FF00040A0F50E
:10214000800010BD0846420018BFD2F1807288BFDF
:1021500000F0004010BDFF2141EAD050C00570479B
:1021600090EA010F48BF81F000413FF58AAE421A64
:1021700004D882F00042A0EB020011444FEAD05292
:102180004FF07F4C1CEA410FA2EBD15318BF9CEAE1
:10219000026F4AD04FF0004C4CEA00204CEA01217B
:1021A00021FA03FCB0EB0C0C0FD412F0FE0F36D06A
:1021B0005FEA4C001DD5001240EBC25038BF70479B
:1021C0001CF03F0F18BF70470BE0A2F101025FEA5D
:1021D0001C2040EBC25038BF70471CF07F0F18BF67
:1021E0007047C3F12003994014BF401E20F0010046
:1021F000704780084FEA122308BF7047B0FA80FC8E
:10220000A2EB0C02CCF1280C60FA0CF093EA122F2E
:1022100004BF00EBC25070474FEAC3707047130A07
:102220005FEADC1008BF7047F6E79CEA026F04D053
:1022300010EA5C0F08BF0020704710B5FFF745FF9C
:1022400040DFF63E81F0004070470CF00F03092B91
:1022500008BF082000F059800A2B0BD0082B18BFAC
:10226000704708BF1CF0400F0AD04FF000004FF03D
:10227000000170471CF0400F18BF4FF0004070473E
:102280001CF0100F08D020F0704300F07F4242EAAB
:10229000D3014FEA4370704700F0604021F07F4265
:1022A00042EA000201F07F4040EA727070474FF04E
:1022B000FF0C4CF4E06C1CEA11531CBF9CEA030CAD
:1022C0009445C2BFDA4201EB02517047002B0DD09A
:1022D000BCF1000F0FD0002A01F00041A4BF41F073
:1022E000E04141F07F614FF00000704701F0004194
:1022F0004FF00000704750EA01334FF09B0C18BFBD
:102300004CF0806C7FF472A970471CF4801F11D0D0
:102310001CF4E02F03D06FEACC31490070474FF036
:102320004050EFF3008222F0704242EA000282F352
:10233000008870474FF00000704700000000000068
:10234000000000000000E03F000000000000E0BFCF
:102350000000E0FE422EE63F0000E0FE422EE6BF17
:10236000763C7935EF39EA3D763C7935EF39EABD8F
:102370003E5555555555C53F93BDBE166CC166BFFC
:102380002CDE25AF6A56113FF16BD2C541BDBBBEF5
:10239000D0A4BE726937663EB82300080000002052
:1023A000380000006C010008F0230008380000200D
:1023B000500A00008801000800A24A040000000042
:1023C00000000000010203040607080900000000E5
:1023D00000000000000000000000010203040102F0
:1023E00003040607080902040608000000000000B4
:04000005080001CD21
:00000001FF
